:1000000000308A0047280000213084008313000854
:10001000031918280130F800F701F70B0D28F80B29
:100020000C284A30F700F70B13281628800B0A28F3
:1000300008000C3088006430A100042009308800DA
:100040006430A1000420033088006430A100042043
:10005000063088006430A10004208A110A12592851
:10006000063088006430A10004200330880064302A
:10007000A1000420093088006430A10004200C3065
:1000800088006430A10004208A110A125B2803084A
:100090001F39830083161F149F141F159F1183138C
:1000A00000308800013085008312880105185A2825
:0A00B00019285B2830285628630049
:02400E00313F40
:00000001FF
;PIC16F877
;CRC=F0C8  CREATED="12-set-21 15:49"
